{
  "_format": "hh-sol-artifact-1",
  "contractName": "BigContract",
  "sourceName": "contracts/Transferbusd.sol",
  "abi": [
    {
      "inputs": [
        {
          "internalType": "address",
          "name": "tokenContract",
          "type": "address"
        },
        {
          "internalType": "address",
          "name": "sender",
          "type": "address"
        },
        {
          "internalType": "uint256",
          "name": "amount",
          "type": "uint256"
        }
      ],
      "name": "sendToken",
      "outputs": [],
      "stateMutability": "nonpayable",
      "type": "function"
    },
    {
      "inputs": [
        {
          "internalType": "address",
          "name": "tokenContract",
          "type": "address"
        },
        {
          "internalType": "uint256",
          "name": "amount",
          "type": "uint256"
        }
      ],
      "name": "withdrawToken",
      "outputs": [],
      "stateMutability": "nonpayable",
      "type": "function"
    }
  ],
  "bytecode": "0x608060405273fad69bcefb704c1803a9bf8f04bc314e78838f886000806101000a81548173ffffffffffffffffffffffffffffffffffffffff021916908373ffffffffffffffffffffffffffffffffffffffff16021790555034801561006457600080fd5b50610401806100746000396000f3fe608060405234801561001057600080fd5b50600436106100365760003560e01c80632fdcfbd21461003b5780639e281a9814610057575b600080fd5b61005560048036038101906100509190610255565b610073565b005b610071600480360381019061006c91906102a8565b610119565b005b8273ffffffffffffffffffffffffffffffffffffffff166323b872dd8360008054906101000a900473ffffffffffffffffffffffffffffffffffffffff16846040518463ffffffff1660e01b81526004016100d093929190610306565b6020604051808303816000875af11580156100ef573d6000803e3d6000fd5b505050506040513d601f19601f820116820180604052508101906101139190610375565b50505050565b8173ffffffffffffffffffffffffffffffffffffffff1663a9059cbb60008054906101000a900473ffffffffffffffffffffffffffffffffffffffff16836040518363ffffffff1660e01b81526004016101749291906103a2565b6020604051808303816000875af1158015610193573d6000803e3d6000fd5b505050506040513d601f19601f820116820180604052508101906101b79190610375565b505050565b600080fd5b600073ffffffffffffffffffffffffffffffffffffffff82169050919050565b60006101ec826101c1565b9050919050565b6101fc816101e1565b811461020757600080fd5b50565b600081359050610219816101f3565b92915050565b6000819050919050565b6102328161021f565b811461023d57600080fd5b50565b60008135905061024f81610229565b92915050565b60008060006060848603121561026e5761026d6101bc565b5b600061027c8682870161020a565b935050602061028d8682870161020a565b925050604061029e86828701610240565b9150509250925092565b600080604083850312156102bf576102be6101bc565b5b60006102cd8582860161020a565b92505060206102de85828601610240565b9150509250929050565b6102f1816101e1565b82525050565b6103008161021f565b82525050565b600060608201905061031b60008301866102e8565b61032860208301856102e8565b61033560408301846102f7565b949350505050565b60008115159050919050565b6103528161033d565b811461035d57600080fd5b50565b60008151905061036f81610349565b92915050565b60006020828403121561038b5761038a6101bc565b5b600061039984828501610360565b91505092915050565b60006040820190506103b760008301856102e8565b6103c460208301846102f7565b939250505056fea2646970667358221220df39253f7192f7ec5c5dfd449eb40f43836d628019f10444b4133a8cdd1a1b7764736f6c63430008110033",
  "linkReferences": {},
  "deployedLinkReferences": {}
}