{
  "_format": "hh-sol-artifact-1",
  "contractName": "Register",
  "sourceName": "contracts/Register.sol",
  "abi": [
    {
      "inputs": [],
      "stateMutability": "nonpayable",
      "type": "constructor"
    },
    {
      "inputs": [
        {
          "internalType": "uint32",
          "name": "id",
          "type": "uint32"
        },
        {
          "internalType": "string",
          "name": "name",
          "type": "string"
        },
        {
          "internalType": "string",
          "name": "department",
          "type": "string"
        },
        {
          "internalType": "string",
          "name": "email",
          "type": "string"
        }
      ],
      "name": "adminRegister",
      "outputs": [],
      "stateMutability": "nonpayable",
      "type": "function"
    },
    {
      "inputs": [],
      "name": "owner",
      "outputs": [
        {
          "internalType": "address",
          "name": "",
          "type": "address"
        }
      ],
      "stateMutability": "view",
      "type": "function"
    },
    {
      "inputs": [
        {
          "internalType": "uint32",
          "name": "teacherId",
          "type": "uint32"
        },
        {
          "internalType": "uint32",
          "name": "studentId",
          "type": "uint32"
        },
        {
          "internalType": "address",
          "name": "newAddress",
          "type": "address"
        }
      ],
      "name": "studentCompleteRegister",
      "outputs": [],
      "stateMutability": "nonpayable",
      "type": "function"
    },
    {
      "inputs": [
        {
          "internalType": "uint32",
          "name": "teacherId",
          "type": "uint32"
        },
        {
          "internalType": "uint32",
          "name": "studentId",
          "type": "uint32"
        },
        {
          "internalType": "string",
          "name": "name",
          "type": "string"
        },
        {
          "internalType": "string",
          "name": "department",
          "type": "string"
        },
        {
          "internalType": "string",
          "name": "email",
          "type": "string"
        }
      ],
      "name": "studentRegister",
      "outputs": [],
      "stateMutability": "nonpayable",
      "type": "function"
    },
    {
      "inputs": [
        {
          "internalType": "uint32",
          "name": "id",
          "type": "uint32"
        },
        {
          "internalType": "address",
          "name": "newAddress",
          "type": "address"
        }
      ],
      "name": "teacherCompleteRegister",
      "outputs": [],
      "stateMutability": "nonpayable",
      "type": "function"
    }
  ],
  "bytecode": "0x608060405234801561001057600080fd5b50336000806101000a81548173ffffffffffffffffffffffffffffffffffffffff021916908373ffffffffffffffffffffffffffffffffffffffff1602179055506113e8806100606000396000f3fe608060405234801561001057600080fd5b50600436106100575760003560e01c806358b4a8f91461005c5780638da5cb5b146100785780639004952014610096578063b8f9947f146100b2578063daedc07d146100ce575b600080fd5b61007660048036038101906100719190610a4d565b6100ea565b005b610080610275565b60405161008d9190610a9c565b60405180910390f35b6100b060048036038101906100ab9190610bfd565b610299565b005b6100cc60048036038101906100c79190610ccc565b610562565b005b6100e860048036038101906100e39190610d87565b61079e565b005b60011515600160008463ffffffff1663ffffffff16815260200190815260200160002060040160149054906101000a900460ff16151514610160576040517f08c379a000000000000000000000000000000000000000000000000000000000815260040161015790610e37565b60405180910390fd5b60001515600160008463ffffffff1663ffffffff16815260200190815260200160002060040160159054906101000a900460ff161515146101d6576040517f08c379a00000000000000000000000000000000000000000000000000000000081526004016101cd90610ea3565b60405180910390fd5b80600160008463ffffffff1663ffffffff16815260200190815260200160002060040160006101000a81548173ffffffffffffffffffffffffffffffffffffffff021916908373ffffffffffffffffffffffffffffffffffffffff16021790555060018060008463ffffffff1663ffffffff16815260200190815260200160002060040160156101000a81548160ff0219169083151502179055505050565b60008054906101000a900473ffffffffffffffffffffffffffffffffffffffff1681565b60011515600160008763ffffffff1663ffffffff16815260200190815260200160002060040160149054906101000a900460ff1615151461030f576040517f08c379a000000000000000000000000000000000000000000000000000000000815260040161030690610f35565b60405180910390fd5b60001515600260008763ffffffff1663ffffffff16815260200190815260200160002060008663ffffffff1663ffffffff16815260200190815260200160002060040160149054906101000a900460ff161515146103a2576040517f08c379a000000000000000000000000000000000000000000000000000000000815260040161039990610fa1565b60405180910390fd5b6040518061010001604052808663ffffffff1681526020018563ffffffff168152602001848152602001838152602001828152602001600073ffffffffffffffffffffffffffffffffffffffff16815260200160011515815260200160001515815250600260008763ffffffff1663ffffffff16815260200190815260200160002060008663ffffffff1663ffffffff16815260200190815260200160002060008201518160000160006101000a81548163ffffffff021916908363ffffffff16021790555060208201518160000160046101000a81548163ffffffff021916908363ffffffff16021790555060408201518160010190816104a491906111e2565b5060608201518160020190816104ba91906111e2565b5060808201518160030190816104d091906111e2565b5060a08201518160040160006101000a81548173ffffffffffffffffffffffffffffffffffffffff021916908373ffffffffffffffffffffffffffffffffffffffff16021790555060c08201518160040160146101000a81548160ff02191690831515021790555060e08201518160040160156101000a81548160ff0219169083151502179055509050505050505050565b60008054906101000a900473ffffffffffffffffffffffffffffffffffffffff1673ffffffffffffffffffffffffffffffffffffffff163373ffffffffffffffffffffffffffffffffffffffff16146105ba57600080fd5b60001515600160008663ffffffff1663ffffffff16815260200190815260200160002060040160149054906101000a900460ff16151514610630576040517f08c379a000000000000000000000000000000000000000000000000000000000815260040161062790611300565b60405180910390fd5b6040518060e001604052808563ffffffff168152602001848152602001838152602001828152602001600073ffffffffffffffffffffffffffffffffffffffff16815260200160011515815260200160001515815250600160008663ffffffff1663ffffffff16815260200190815260200160002060008201518160000160006101000a81548163ffffffff021916908363ffffffff16021790555060208201518160010190816106e191906111e2565b5060408201518160020190816106f791906111e2565b50606082015181600301908161070d91906111e2565b5060808201518160040160006101000a81548173ffffffffffffffffffffffffffffffffffffffff021916908373ffffffffffffffffffffffffffffffffffffffff16021790555060a08201518160040160146101000a81548160ff02191690831515021790555060c08201518160040160156101000a81548160ff02191690831515021790555090505050505050565b60011515600260008563ffffffff1663ffffffff16815260200190815260200160002060008463ffffffff1663ffffffff16815260200190815260200160002060040160149054906101000a900460ff16151514610831576040517f08c379a000000000000000000000000000000000000000000000000000000000815260040161082890611392565b60405180910390fd5b60001515600260008563ffffffff1663ffffffff16815260200190815260200160002060008463ffffffff1663ffffffff16815260200190815260200160002060040160159054906101000a900460ff161515146108c4576040517f08c379a00000000000000000000000000000000000000000000000000000000081526004016108bb90611300565b60405180910390fd5b80600260008563ffffffff1663ffffffff16815260200190815260200160002060008463ffffffff1663ffffffff16815260200190815260200160002060040160006101000a81548173ffffffffffffffffffffffffffffffffffffffff021916908373ffffffffffffffffffffffffffffffffffffffff1602179055506001600260008563ffffffff1663ffffffff16815260200190815260200160002060008463ffffffff1663ffffffff16815260200190815260200160002060040160156101000a81548160ff021916908315150217905550505050565b6000604051905090565b600080fd5b600080fd5b600063ffffffff82169050919050565b6109cc816109b3565b81146109d757600080fd5b50565b6000813590506109e9816109c3565b92915050565b600073ffffffffffffffffffffffffffffffffffffffff82169050919050565b6000610a1a826109ef565b9050919050565b610a2a81610a0f565b8114610a3557600080fd5b50565b600081359050610a4781610a21565b92915050565b60008060408385031215610a6457610a636109a9565b5b6000610a72858286016109da565b9250506020610a8385828601610a38565b9150509250929050565b610a9681610a0f565b82525050565b6000602082019050610ab16000830184610a8d565b92915050565b600080fd5b600080fd5b6000601f19601f8301169050919050565b7f4e487b7100000000000000000000000000000000000000000000000000000000600052604160045260246000fd5b610b0a82610ac1565b810181811067ffffffffffffffff82111715610b2957610b28610ad2565b5b80604052505050565b6000610b3c61099f565b9050610b488282610b01565b919050565b600067ffffffffffffffff821115610b6857610b67610ad2565b5b610b7182610ac1565b9050602081019050919050565b82818337600083830152505050565b6000610ba0610b9b84610b4d565b610b32565b905082815260208101848484011115610bbc57610bbb610abc565b5b610bc7848285610b7e565b509392505050565b600082601f830112610be457610be3610ab7565b5b8135610bf4848260208601610b8d565b91505092915050565b600080600080600060a08688031215610c1957610c186109a9565b5b6000610c27888289016109da565b9550506020610c38888289016109da565b945050604086013567ffffffffffffffff811115610c5957610c586109ae565b5b610c6588828901610bcf565b935050606086013567ffffffffffffffff811115610c8657610c856109ae565b5b610c9288828901610bcf565b925050608086013567ffffffffffffffff811115610cb357610cb26109ae565b5b610cbf88828901610bcf565b9150509295509295909350565b60008060008060808587031215610ce657610ce56109a9565b5b6000610cf4878288016109da565b945050602085013567ffffffffffffffff811115610d1557610d146109ae565b5b610d2187828801610bcf565b935050604085013567ffffffffffffffff811115610d4257610d416109ae565b5b610d4e87828801610bcf565b925050606085013567ffffffffffffffff811115610d6f57610d6e6109ae565b5b610d7b87828801610bcf565b91505092959194509250565b600080600060608486031215610da057610d9f6109a9565b5b6000610dae868287016109da565b9350506020610dbf868287016109da565b9250506040610dd086828701610a38565b9150509250925092565b600082825260208201905092915050565b7f41646d696e20646964206e6f7420726567697374657265640000000000000000600082015250565b6000610e21601883610dda565b9150610e2c82610deb565b602082019050919050565b60006020820190508181036000830152610e5081610e14565b9050919050565b7f416c726164792072656769737465726564000000000000000000000000000000600082015250565b6000610e8d601183610dda565b9150610e9882610e57565b602082019050919050565b60006020820190508181036000830152610ebc81610e80565b9050919050565b7f596f7520617265206e6f7420726567697374657265732061732061207465616360008201527f6865720000000000000000000000000000000000000000000000000000000000602082015250565b6000610f1f602383610dda565b9150610f2a82610ec3565b604082019050919050565b60006020820190508181036000830152610f4e81610f12565b9050919050565b7f416c726561647920726567697374657265642073747564656e74000000000000600082015250565b6000610f8b601a83610dda565b9150610f9682610f55565b602082019050919050565b60006020820190508181036000830152610fba81610f7e565b9050919050565b600081519050919050565b7f4e487b7100000000000000000000000000000000000000000000000000000000600052602260045260246000fd5b6000600282049050600182168061101357607f821691505b60208210810361102657611025610fcc565b5b50919050565b60008190508160005260206000209050919050565b60006020601f8301049050919050565b600082821b905092915050565b60006008830261108e7fffffffffffffffffffffffffffffffffffffffffffffffffffffffffffffffff82611051565b6110988683611051565b95508019841693508086168417925050509392505050565b6000819050919050565b6000819050919050565b60006110df6110da6110d5846110b0565b6110ba565b6110b0565b9050919050565b6000819050919050565b6110f9836110c4565b61110d611105826110e6565b84845461105e565b825550505050565b600090565b611122611115565b61112d8184846110f0565b505050565b5b818110156111515761114660008261111a565b600181019050611133565b5050565b601f821115611196576111678161102c565b61117084611041565b8101602085101561117f578190505b61119361118b85611041565b830182611132565b50505b505050565b600082821c905092915050565b60006111b96000198460080261119b565b1980831691505092915050565b60006111d283836111a8565b9150826002028217905092915050565b6111eb82610fc1565b67ffffffffffffffff81111561120457611203610ad2565b5b61120e8254610ffb565b611219828285611155565b600060209050601f83116001811461124c576000841561123a578287015190505b61124485826111c6565b8655506112ac565b601f19841661125a8661102c565b60005b828110156112825784890151825560018201915060208501945060208101905061125d565b8683101561129f578489015161129b601f8916826111a8565b8355505b6001600288020188555050505b505050505050565b7f416c726561647920726567697374657265640000000000000000000000000000600082015250565b60006112ea601283610dda565b91506112f5826112b4565b602082019050919050565b60006020820190508181036000830152611319816112dd565b9050919050565b7f596f7520617265206e6f74207265676973746572656420627920796f7572207460008201527f6561636865720000000000000000000000000000000000000000000000000000602082015250565b600061137c602683610dda565b915061138782611320565b604082019050919050565b600060208201905081810360008301526113ab8161136f565b905091905056fea264697066735822122018017831a874cd0595f1ad1ec0ec7e3b3abb9833e7a725c9e1d7692dd9e9f21e64736f6c63430008110033",
  "linkReferences": {},
  "deployedLinkReferences": {}
}