{
  "_format": "hh-sol-artifact-1",
  "contractName": "Register",
  "sourceName": "contracts/Register.sol",
  "abi": [
    {
      "inputs": [],
      "stateMutability": "nonpayable",
      "type": "constructor"
    },
    {
      "inputs": [
        {
          "internalType": "uint32",
          "name": "id",
          "type": "uint32"
        },
        {
          "internalType": "string",
          "name": "name",
          "type": "string"
        },
        {
          "internalType": "string",
          "name": "department",
          "type": "string"
        },
        {
          "internalType": "string",
          "name": "email",
          "type": "string"
        }
      ],
      "name": "adminRegister",
      "outputs": [],
      "stateMutability": "nonpayable",
      "type": "function"
    },
    {
      "inputs": [
        {
          "internalType": "uint32",
          "name": "teacherId",
          "type": "uint32"
        }
      ],
      "name": "getStudents",
      "outputs": [
        {
          "components": [
            {
              "internalType": "uint32",
              "name": "teacherId",
              "type": "uint32"
            },
            {
              "internalType": "uint32",
              "name": "studentId",
              "type": "uint32"
            },
            {
              "internalType": "string",
              "name": "studentName",
              "type": "string"
            },
            {
              "internalType": "string",
              "name": "studentDepartment",
              "type": "string"
            },
            {
              "internalType": "string",
              "name": "studentEmail",
              "type": "string"
            },
            {
              "internalType": "address",
              "name": "studentAddress",
              "type": "address"
            },
            {
              "internalType": "bool",
              "name": "isExist",
              "type": "bool"
            },
            {
              "internalType": "bool",
              "name": "isComplete",
              "type": "bool"
            }
          ],
          "internalType": "struct Register.Student[]",
          "name": "",
          "type": "tuple[]"
        }
      ],
      "stateMutability": "view",
      "type": "function"
    },
    {
      "inputs": [],
      "name": "getTeachers",
      "outputs": [
        {
          "components": [
            {
              "internalType": "uint32",
              "name": "teacherId",
              "type": "uint32"
            },
            {
              "internalType": "string",
              "name": "teacherName",
              "type": "string"
            },
            {
              "internalType": "string",
              "name": "teacherDepartment",
              "type": "string"
            },
            {
              "internalType": "string",
              "name": "teacherEmail",
              "type": "string"
            },
            {
              "internalType": "address",
              "name": "teacherAddress",
              "type": "address"
            },
            {
              "internalType": "bool",
              "name": "isExist",
              "type": "bool"
            },
            {
              "internalType": "bool",
              "name": "isComplete",
              "type": "bool"
            }
          ],
          "internalType": "struct Register.Teacher[]",
          "name": "",
          "type": "tuple[]"
        }
      ],
      "stateMutability": "view",
      "type": "function"
    },
    {
      "inputs": [],
      "name": "owner",
      "outputs": [
        {
          "internalType": "address",
          "name": "",
          "type": "address"
        }
      ],
      "stateMutability": "view",
      "type": "function"
    },
    {
      "inputs": [
        {
          "internalType": "uint32",
          "name": "teacherId",
          "type": "uint32"
        },
        {
          "internalType": "uint32",
          "name": "studentId",
          "type": "uint32"
        },
        {
          "internalType": "address",
          "name": "newAddress",
          "type": "address"
        }
      ],
      "name": "studentCompleteRegister",
      "outputs": [],
      "stateMutability": "nonpayable",
      "type": "function"
    },
    {
      "inputs": [
        {
          "internalType": "uint32",
          "name": "teacherId",
          "type": "uint32"
        },
        {
          "internalType": "uint32",
          "name": "studentId",
          "type": "uint32"
        },
        {
          "internalType": "string",
          "name": "name",
          "type": "string"
        },
        {
          "internalType": "string",
          "name": "department",
          "type": "string"
        },
        {
          "internalType": "string",
          "name": "email",
          "type": "string"
        }
      ],
      "name": "studentRegister",
      "outputs": [],
      "stateMutability": "nonpayable",
      "type": "function"
    },
    {
      "inputs": [
        {
          "internalType": "uint32",
          "name": "id",
          "type": "uint32"
        },
        {
          "internalType": "address",
          "name": "newAddress",
          "type": "address"
        }
      ],
      "name": "teacherCompleteRegister",
      "outputs": [],
      "stateMutability": "nonpayable",
      "type": "function"
    }
  ],
  "bytecode": "0x608060405234801561001057600080fd5b50336000806101000a81548173ffffffffffffffffffffffffffffffffffffffff021916908373ffffffffffffffffffffffffffffffffffffffff160217905550612200806100606000396000f3fe608060405234801561001057600080fd5b506004361061007d5760003560e01c8063900495201161005b57806390049520146100da578063b8f9947f146100f6578063daedc07d14610112578063efe1f02d1461012e5761007d565b80632d4bf1541461008257806358b4a8f9146100a05780638da5cb5b146100bc575b600080fd5b61008a61015e565b604051610097919061157e565b60405180910390f35b6100ba60048036038101906100b5919061160c565b6104d7565b005b6100c4610662565b6040516100d1919061165b565b60405180910390f35b6100f460048036038101906100ef91906117ab565b610686565b005b610110600480360381019061010b919061187a565b6109ba565b005b61012c60048036038101906101279190611935565b610c44565b005b61014860048036038101906101439190611988565b610e45565b6040516101559190611b35565b60405180910390f35b6060600060028054905067ffffffffffffffff81111561018157610180611680565b5b6040519080825280602002602001820160405280156101ba57816020015b6101a761123f565b81526020019060019003908161019f5790505b50905060005b6002805490508110156104cf57600060016000600284815481106101e7576101e6611b57565b5b90600052602060002090600891828204019190066004029054906101000a900463ffffffff1663ffffffff1663ffffffff1681526020019081526020016000209050806040518060e00160405290816000820160009054906101000a900463ffffffff1663ffffffff1663ffffffff16815260200160018201805461026b90611bb5565b80601f016020809104026020016040519081016040528092919081815260200182805461029790611bb5565b80156102e45780601f106102b9576101008083540402835291602001916102e4565b820191906000526020600020905b8154815290600101906020018083116102c757829003601f168201915b505050505081526020016002820180546102fd90611bb5565b80601f016020809104026020016040519081016040528092919081815260200182805461032990611bb5565b80156103765780601f1061034b57610100808354040283529160200191610376565b820191906000526020600020905b81548152906001019060200180831161035957829003601f168201915b5050505050815260200160038201805461038f90611bb5565b80601f01602080910402602001604051908101604052809291908181526020018280546103bb90611bb5565b80156104085780601f106103dd57610100808354040283529160200191610408565b820191906000526020600020905b8154815290600101906020018083116103eb57829003601f168201915b505050505081526020016004820160009054906101000a900473ffffffffffffffffffffffffffffffffffffffff1673ffffffffffffffffffffffffffffffffffffffff1673ffffffffffffffffffffffffffffffffffffffff1681526020016004820160149054906101000a900460ff161515151581526020016004820160159054906101000a900460ff1615151515815250508383815181106104b0576104af611b57565b5b60200260200101819052505080806104c790611c1f565b9150506101c0565b508091505090565b60011515600160008463ffffffff1663ffffffff16815260200190815260200160002060040160149054906101000a900460ff1615151461054d576040517f08c379a000000000000000000000000000000000000000000000000000000000815260040161054490611cc4565b60405180910390fd5b60001515600160008463ffffffff1663ffffffff16815260200190815260200160002060040160159054906101000a900460ff161515146105c3576040517f08c379a00000000000000000000000000000000000000000000000000000000081526004016105ba90611d30565b60405180910390fd5b80600160008463ffffffff1663ffffffff16815260200190815260200160002060040160006101000a81548173ffffffffffffffffffffffffffffffffffffffff021916908373ffffffffffffffffffffffffffffffffffffffff16021790555060018060008463ffffffff1663ffffffff16815260200190815260200160002060040160156101000a81548160ff0219169083151502179055505050565b60008054906101000a900473ffffffffffffffffffffffffffffffffffffffff1681565b60011515600160008763ffffffff1663ffffffff16815260200190815260200160002060040160149054906101000a900460ff161515146106fc576040517f08c379a00000000000000000000000000000000000000000000000000000000081526004016106f390611dc2565b60405180910390fd5b60001515600360008763ffffffff1663ffffffff16815260200190815260200160002060008663ffffffff1663ffffffff16815260200190815260200160002060040160149054906101000a900460ff1615151461078f576040517f08c379a000000000000000000000000000000000000000000000000000000000815260040161078690611e2e565b60405180910390fd5b6040518061010001604052808663ffffffff1681526020018563ffffffff168152602001848152602001838152602001828152602001600073ffffffffffffffffffffffffffffffffffffffff16815260200160011515815260200160001515815250600360008763ffffffff1663ffffffff16815260200190815260200160002060008663ffffffff1663ffffffff16815260200190815260200160002060008201518160000160006101000a81548163ffffffff021916908363ffffffff16021790555060208201518160000160046101000a81548163ffffffff021916908363ffffffff16021790555060408201518160010190816108919190611ffa565b5060608201518160020190816108a79190611ffa565b5060808201518160030190816108bd9190611ffa565b5060a08201518160040160006101000a81548173ffffffffffffffffffffffffffffffffffffffff021916908373ffffffffffffffffffffffffffffffffffffffff16021790555060c08201518160040160146101000a81548160ff02191690831515021790555060e08201518160040160156101000a81548160ff021916908315150217905550905050600460008663ffffffff1663ffffffff1681526020019081526020016000208490806001815401808255809150506001900390600052602060002090600891828204019190066004029091909190916101000a81548163ffffffff021916908363ffffffff1602179055505050505050565b60008054906101000a900473ffffffffffffffffffffffffffffffffffffffff1673ffffffffffffffffffffffffffffffffffffffff163373ffffffffffffffffffffffffffffffffffffffff1614610a1257600080fd5b60001515600160008663ffffffff1663ffffffff16815260200190815260200160002060040160149054906101000a900460ff16151514610a88576040517f08c379a0000000000000000000000000000000000000000000000000000000008152600401610a7f90612118565b60405180910390fd5b6040518060e001604052808563ffffffff168152602001848152602001838152602001828152602001600073ffffffffffffffffffffffffffffffffffffffff16815260200160011515815260200160001515815250600160008663ffffffff1663ffffffff16815260200190815260200160002060008201518160000160006101000a81548163ffffffff021916908363ffffffff1602179055506020820151816001019081610b399190611ffa565b506040820151816002019081610b4f9190611ffa565b506060820151816003019081610b659190611ffa565b5060808201518160040160006101000a81548173ffffffffffffffffffffffffffffffffffffffff021916908373ffffffffffffffffffffffffffffffffffffffff16021790555060a08201518160040160146101000a81548160ff02191690831515021790555060c08201518160040160156101000a81548160ff02191690831515021790555090505060028490806001815401808255809150506001900390600052602060002090600891828204019190066004029091909190916101000a81548163ffffffff021916908363ffffffff16021790555050505050565b60011515600360008563ffffffff1663ffffffff16815260200190815260200160002060008463ffffffff1663ffffffff16815260200190815260200160002060040160149054906101000a900460ff16151514610cd7576040517f08c379a0000000000000000000000000000000000000000000000000000000008152600401610cce906121aa565b60405180910390fd5b60001515600360008563ffffffff1663ffffffff16815260200190815260200160002060008463ffffffff1663ffffffff16815260200190815260200160002060040160159054906101000a900460ff16151514610d6a576040517f08c379a0000000000000000000000000000000000000000000000000000000008152600401610d6190612118565b60405180910390fd5b80600360008563ffffffff1663ffffffff16815260200190815260200160002060008463ffffffff1663ffffffff16815260200190815260200160002060040160006101000a81548173ffffffffffffffffffffffffffffffffffffffff021916908373ffffffffffffffffffffffffffffffffffffffff1602179055506001600360008563ffffffff1663ffffffff16815260200190815260200160002060008463ffffffff1663ffffffff16815260200190815260200160002060040160156101000a81548160ff021916908315150217905550505050565b60606000600460008463ffffffff1663ffffffff16815260200190815260200160002080549050905060008167ffffffffffffffff811115610e8a57610e89611680565b5b604051908082528060200260200182016040528015610ec357816020015b610eb061129c565b815260200190600190039081610ea85790505b50905060005b82811015611234576000600360008763ffffffff1663ffffffff1681526020019081526020016000206000600460008963ffffffff1663ffffffff1681526020019081526020016000208481548110610f2557610f24611b57565b5b90600052602060002090600891828204019190066004029054906101000a900463ffffffff1663ffffffff1663ffffffff168152602001908152602001600020905080604051806101000160405290816000820160009054906101000a900463ffffffff1663ffffffff1663ffffffff1681526020016000820160049054906101000a900463ffffffff1663ffffffff1663ffffffff168152602001600182018054610fd090611bb5565b80601f0160208091040260200160405190810160405280929190818152602001828054610ffc90611bb5565b80156110495780601f1061101e57610100808354040283529160200191611049565b820191906000526020600020905b81548152906001019060200180831161102c57829003601f168201915b5050505050815260200160028201805461106290611bb5565b80601f016020809104026020016040519081016040528092919081815260200182805461108e90611bb5565b80156110db5780601f106110b0576101008083540402835291602001916110db565b820191906000526020600020905b8154815290600101906020018083116110be57829003601f168201915b505050505081526020016003820180546110f490611bb5565b80601f016020809104026020016040519081016040528092919081815260200182805461112090611bb5565b801561116d5780601f106111425761010080835404028352916020019161116d565b820191906000526020600020905b81548152906001019060200180831161115057829003601f168201915b505050505081526020016004820160009054906101000a900473ffffffffffffffffffffffffffffffffffffffff1673ffffffffffffffffffffffffffffffffffffffff1673ffffffffffffffffffffffffffffffffffffffff1681526020016004820160149054906101000a900460ff161515151581526020016004820160159054906101000a900460ff16151515158152505083838151811061121557611214611b57565b5b602002602001018190525050808061122c90611c1f565b915050610ec9565b508092505050919050565b6040518060e00160405280600063ffffffff168152602001606081526020016060815260200160608152602001600073ffffffffffffffffffffffffffffffffffffffff1681526020016000151581526020016000151581525090565b604051806101000160405280600063ffffffff168152602001600063ffffffff168152602001606081526020016060815260200160608152602001600073ffffffffffffffffffffffffffffffffffffffff1681526020016000151581526020016000151581525090565b600081519050919050565b600082825260208201905092915050565b6000819050602082019050919050565b600063ffffffff82169050919050565b61134c81611333565b82525050565b600081519050919050565b600082825260208201905092915050565b60005b8381101561138c578082015181840152602081019050611371565b60008484015250505050565b6000601f19601f8301169050919050565b60006113b482611352565b6113be818561135d565b93506113ce81856020860161136e565b6113d781611398565b840191505092915050565b600073ffffffffffffffffffffffffffffffffffffffff82169050919050565b600061140d826113e2565b9050919050565b61141d81611402565b82525050565b60008115159050919050565b61143881611423565b82525050565b600060e0830160008301516114566000860182611343565b506020830151848203602086015261146e82826113a9565b9150506040830151848203604086015261148882826113a9565b915050606083015184820360608601526114a282826113a9565b91505060808301516114b76080860182611414565b5060a08301516114ca60a086018261142f565b5060c08301516114dd60c086018261142f565b508091505092915050565b60006114f4838361143e565b905092915050565b6000602082019050919050565b600061151482611307565b61151e8185611312565b93508360208202850161153085611323565b8060005b8581101561156c578484038952815161154d85826114e8565b9450611558836114fc565b925060208a01995050600181019050611534565b50829750879550505050505092915050565b600060208201905081810360008301526115988184611509565b905092915050565b6000604051905090565b600080fd5b600080fd5b6115bd81611333565b81146115c857600080fd5b50565b6000813590506115da816115b4565b92915050565b6115e981611402565b81146115f457600080fd5b50565b600081359050611606816115e0565b92915050565b60008060408385031215611623576116226115aa565b5b6000611631858286016115cb565b9250506020611642858286016115f7565b9150509250929050565b61165581611402565b82525050565b6000602082019050611670600083018461164c565b92915050565b600080fd5b600080fd5b7f4e487b7100000000000000000000000000000000000000000000000000000000600052604160045260246000fd5b6116b882611398565b810181811067ffffffffffffffff821117156116d7576116d6611680565b5b80604052505050565b60006116ea6115a0565b90506116f682826116af565b919050565b600067ffffffffffffffff82111561171657611715611680565b5b61171f82611398565b9050602081019050919050565b82818337600083830152505050565b600061174e611749846116fb565b6116e0565b90508281526020810184848401111561176a5761176961167b565b5b61177584828561172c565b509392505050565b600082601f83011261179257611791611676565b5b81356117a284826020860161173b565b91505092915050565b600080600080600060a086880312156117c7576117c66115aa565b5b60006117d5888289016115cb565b95505060206117e6888289016115cb565b945050604086013567ffffffffffffffff811115611807576118066115af565b5b6118138882890161177d565b935050606086013567ffffffffffffffff811115611834576118336115af565b5b6118408882890161177d565b925050608086013567ffffffffffffffff811115611861576118606115af565b5b61186d8882890161177d565b9150509295509295909350565b60008060008060808587031215611894576118936115aa565b5b60006118a2878288016115cb565b945050602085013567ffffffffffffffff8111156118c3576118c26115af565b5b6118cf8782880161177d565b935050604085013567ffffffffffffffff8111156118f0576118ef6115af565b5b6118fc8782880161177d565b925050606085013567ffffffffffffffff81111561191d5761191c6115af565b5b6119298782880161177d565b91505092959194509250565b60008060006060848603121561194e5761194d6115aa565b5b600061195c868287016115cb565b935050602061196d868287016115cb565b925050604061197e868287016115f7565b9150509250925092565b60006020828403121561199e5761199d6115aa565b5b60006119ac848285016115cb565b91505092915050565b600081519050919050565b600082825260208201905092915050565b6000819050602082019050919050565b6000610100830160008301516119fa6000860182611343565b506020830151611a0d6020860182611343565b5060408301518482036040860152611a2582826113a9565b91505060608301518482036060860152611a3f82826113a9565b91505060808301518482036080860152611a5982826113a9565b91505060a0830151611a6e60a0860182611414565b5060c0830151611a8160c086018261142f565b5060e0830151611a9460e086018261142f565b508091505092915050565b6000611aab83836119e1565b905092915050565b6000602082019050919050565b6000611acb826119b5565b611ad581856119c0565b935083602082028501611ae7856119d1565b8060005b85811015611b235784840389528151611b048582611a9f565b9450611b0f83611ab3565b925060208a01995050600181019050611aeb565b50829750879550505050505092915050565b60006020820190508181036000830152611b4f8184611ac0565b905092915050565b7f4e487b7100000000000000000000000000000000000000000000000000000000600052603260045260246000fd5b7f4e487b7100000000000000000000000000000000000000000000000000000000600052602260045260246000fd5b60006002820490506001821680611bcd57607f821691505b602082108103611be057611bdf611b86565b5b50919050565b7f4e487b7100000000000000000000000000000000000000000000000000000000600052601160045260246000fd5b6000819050919050565b6000611c2a82611c15565b91507fffffffffffffffffffffffffffffffffffffffffffffffffffffffffffffffff8203611c5c57611c5b611be6565b5b600182019050919050565b600082825260208201905092915050565b7f41646d696e20646964206e6f7420726567697374657265640000000000000000600082015250565b6000611cae601883611c67565b9150611cb982611c78565b602082019050919050565b60006020820190508181036000830152611cdd81611ca1565b9050919050565b7f416c726164792072656769737465726564000000000000000000000000000000600082015250565b6000611d1a601183611c67565b9150611d2582611ce4565b602082019050919050565b60006020820190508181036000830152611d4981611d0d565b9050919050565b7f596f7520617265206e6f7420726567697374657265732061732061207465616360008201527f6865720000000000000000000000000000000000000000000000000000000000602082015250565b6000611dac602383611c67565b9150611db782611d50565b604082019050919050565b60006020820190508181036000830152611ddb81611d9f565b9050919050565b7f416c726561647920726567697374657265642073747564656e74000000000000600082015250565b6000611e18601a83611c67565b9150611e2382611de2565b602082019050919050565b60006020820190508181036000830152611e4781611e0b565b9050919050565b60008190508160005260206000209050919050565b60006020601f8301049050919050565b600082821b905092915050565b600060088302611eb07fffffffffffffffffffffffffffffffffffffffffffffffffffffffffffffffff82611e73565b611eba8683611e73565b95508019841693508086168417925050509392505050565b6000819050919050565b6000611ef7611ef2611eed84611c15565b611ed2565b611c15565b9050919050565b6000819050919050565b611f1183611edc565b611f25611f1d82611efe565b848454611e80565b825550505050565b600090565b611f3a611f2d565b611f45818484611f08565b505050565b5b81811015611f6957611f5e600082611f32565b600181019050611f4b565b5050565b601f821115611fae57611f7f81611e4e565b611f8884611e63565b81016020851015611f97578190505b611fab611fa385611e63565b830182611f4a565b50505b505050565b600082821c905092915050565b6000611fd160001984600802611fb3565b1980831691505092915050565b6000611fea8383611fc0565b9150826002028217905092915050565b61200382611352565b67ffffffffffffffff81111561201c5761201b611680565b5b6120268254611bb5565b612031828285611f6d565b600060209050601f8311600181146120645760008415612052578287015190505b61205c8582611fde565b8655506120c4565b601f19841661207286611e4e565b60005b8281101561209a57848901518255600182019150602085019450602081019050612075565b868310156120b757848901516120b3601f891682611fc0565b8355505b6001600288020188555050505b505050505050565b7f416c726561647920726567697374657265640000000000000000000000000000600082015250565b6000612102601283611c67565b915061210d826120cc565b602082019050919050565b60006020820190508181036000830152612131816120f5565b9050919050565b7f596f7520617265206e6f74207265676973746572656420627920796f7572207460008201527f6561636865720000000000000000000000000000000000000000000000000000602082015250565b6000612194602683611c67565b915061219f82612138565b604082019050919050565b600060208201905081810360008301526121c381612187565b905091905056fea264697066735822122030d62750fc803791c9c152e287f2acf23042acaa3aaf5f11354927f6774ba44564736f6c63430008110033",
  "linkReferences": {},
  "deployedLinkReferences": {}
}